{
	"_format": "hh-sol-artifact-1",
	"contractName": "SolimaxPublicSale",
	"sourceName": "contracts/SeedifyFund/PublicSale.sol",
	"abi": [
		{
			"inputs": [
				{
					"internalType": "address",
					"name": "_tokenAddress",
					"type": "address"
				},
				{
					"internalType": "address",
					"name": "_projOwner",
					"type": "address"
				},
				{
					"internalType": "uint256",
					"name": "_startTime",
					"type": "uint256"
				},
				{
					"internalType": "uint256",
					"name": "_stopTime",
					"type": "uint256"
				},
				{
					"internalType": "uint256",
					"name": "_maxBuy",
					"type": "uint256"
				},
				{
					"internalType": "uint256",
					"name": "_minBuy",
					"type": "uint256"
				},
				{
					"internalType": "uint256",
					"name": "_softcap",
					"type": "uint256"
				},
				{
					"internalType": "uint256",
					"name": "_hardcap",
					"type": "uint256"
				}
			],
			"stateMutability": "nonpayable",
			"type": "constructor"
		},
		{
			"anonymous": false,
			"inputs": [
				{
					"indexed": true,
					"internalType": "address",
					"name": "previousOwner",
					"type": "address"
				},
				{
					"indexed": true,
					"internalType": "address",
					"name": "newOwner",
					"type": "address"
				}
			],
			"name": "OwnershipTransferred",
			"type": "event"
		},
		{
			"inputs": [
				{
					"internalType": "address",
					"name": "",
					"type": "address"
				}
			],
			"name": "Users",
			"outputs": [
				{
					"internalType": "uint256",
					"name": "",
					"type": "uint256"
				}
			],
			"stateMutability": "view",
			"type": "function"
		},
		{
			"inputs": [
				{
					"internalType": "address[]",
					"name": "_users",
					"type": "address[]"
				}
			],
			"name": "addManyUsersToWhiteList",
			"outputs": [],
			"stateMutability": "nonpayable",
			"type": "function"
		},
		{
			"inputs": [
				{
					"internalType": "address",
					"name": "newUser",
					"type": "address"
				}
			],
			"name": "addToWhitelistOwner",
			"outputs": [],
			"stateMutability": "nonpayable",
			"type": "function"
		},
		{
			"inputs": [],
			"name": "admin",
			"outputs": [
				{
					"internalType": "address",
					"name": "",
					"type": "address"
				}
			],
			"stateMutability": "view",
			"type": "function"
		},
		{
			"inputs": [
				{
					"internalType": "uint256",
					"name": "amount",
					"type": "uint256"
				}
			],
			"name": "buyTokens",
			"outputs": [],
			"stateMutability": "nonpayable",
			"type": "function"
		},
		{
			"inputs": [],
			"name": "currentWhitelistUsers",
			"outputs": [
				{
					"internalType": "uint256",
					"name": "",
					"type": "uint256"
				}
			],
			"stateMutability": "view",
			"type": "function"
		},
		{
			"inputs": [],
			"name": "hardcap",
			"outputs": [
				{
					"internalType": "uint256",
					"name": "",
					"type": "uint256"
				}
			],
			"stateMutability": "view",
			"type": "function"
		},
		{
			"inputs": [],
			"name": "isPublicSale",
			"outputs": [
				{
					"internalType": "bool",
					"name": "",
					"type": "bool"
				}
			],
			"stateMutability": "view",
			"type": "function"
		},
		{
			"inputs": [],
			"name": "maxBuyAmount",
			"outputs": [
				{
					"internalType": "uint256",
					"name": "",
					"type": "uint256"
				}
			],
			"stateMutability": "view",
			"type": "function"
		},
		{
			"inputs": [],
			"name": "minBuyAmount",
			"outputs": [
				{
					"internalType": "uint256",
					"name": "",
					"type": "uint256"
				}
			],
			"stateMutability": "view",
			"type": "function"
		},
		{
			"inputs": [],
			"name": "owner",
			"outputs": [
				{
					"internalType": "address",
					"name": "",
					"type": "address"
				}
			],
			"stateMutability": "view",
			"type": "function"
		},
		{
			"inputs": [],
			"name": "projectOwner",
			"outputs": [
				{
					"internalType": "address",
					"name": "",
					"type": "address"
				}
			],
			"stateMutability": "view",
			"type": "function"
		},
		{
			"inputs": [
				{
					"internalType": "address",
					"name": "newUser",
					"type": "address"
				}
			],
			"name": "removeToWhitelistOwner",
			"outputs": [],
			"stateMutability": "nonpayable",
			"type": "function"
		},
		{
			"inputs": [
				{
					"internalType": "uint256",
					"name": "newMaxBUy",
					"type": "uint256"
				}
			],
			"name": "setMaximumBuy",
			"outputs": [],
			"stateMutability": "nonpayable",
			"type": "function"
		},
		{
			"inputs": [
				{
					"internalType": "uint256",
					"name": "newMinimuBUy",
					"type": "uint256"
				}
			],
			"name": "setMiniumBuy",
			"outputs": [],
			"stateMutability": "nonpayable",
			"type": "function"
		},
		{
			"inputs": [
				{
					"internalType": "address",
					"name": "_newAddress",
					"type": "address"
				}
			],
			"name": "setNewProjectOwner",
			"outputs": [],
			"stateMutability": "nonpayable",
			"type": "function"
		},
		{
			"inputs": [
				{
					"internalType": "bool",
					"name": "_saleStatus",
					"type": "bool"
				}
			],
			"name": "setSaleStatus",
			"outputs": [],
			"stateMutability": "nonpayable",
			"type": "function"
		},
		{
			"inputs": [
				{
					"internalType": "uint256",
					"name": "_newTime",
					"type": "uint256"
				}
			],
			"name": "setStartTime",
			"outputs": [],
			"stateMutability": "nonpayable",
			"type": "function"
		},
		{
			"inputs": [
				{
					"internalType": "uint256",
					"name": "_newStopTime",
					"type": "uint256"
				}
			],
			"name": "setStopTime",
			"outputs": [],
			"stateMutability": "nonpayable",
			"type": "function"
		},
		{
			"inputs": [
				{
					"internalType": "address",
					"name": "newAddress",
					"type": "address"
				}
			],
			"name": "setTokenAddress",
			"outputs": [],
			"stateMutability": "nonpayable",
			"type": "function"
		},
		{
			"inputs": [],
			"name": "softcap",
			"outputs": [
				{
					"internalType": "uint256",
					"name": "",
					"type": "uint256"
				}
			],
			"stateMutability": "view",
			"type": "function"
		},
		{
			"inputs": [],
			"name": "startTime",
			"outputs": [
				{
					"internalType": "uint256",
					"name": "",
					"type": "uint256"
				}
			],
			"stateMutability": "view",
			"type": "function"
		},
		{
			"inputs": [],
			"name": "stopTime",
			"outputs": [
				{
					"internalType": "uint256",
					"name": "",
					"type": "uint256"
				}
			],
			"stateMutability": "view",
			"type": "function"
		},
		{
			"inputs": [],
			"name": "tokenAddress",
			"outputs": [
				{
					"internalType": "address",
					"name": "",
					"type": "address"
				}
			],
			"stateMutability": "view",
			"type": "function"
		},
		{
			"inputs": [],
			"name": "totalUSDCReceivedInAllTier",
			"outputs": [
				{
					"internalType": "uint256",
					"name": "",
					"type": "uint256"
				}
			],
			"stateMutability": "view",
			"type": "function"
		},
		{
			"inputs": [
				{
					"internalType": "address",
					"name": "newOwner",
					"type": "address"
				}
			],
			"name": "transferOwnership",
			"outputs": [],
			"stateMutability": "nonpayable",
			"type": "function"
		}
	],
	"bytecode": "0x60806040526001600c60006101000a81548160ff0219169083151502179055503480156200002c57600080fd5b506040516200243038038062002430833981810160405281019062000052919062000301565b336000806101000a81548173ffffffffffffffffffffffffffffffffffffffff021916908373ffffffffffffffffffffffffffffffffffffffff160217905550858511620000d7576040517f08c379a0000000000000000000000000000000000000000000000000000000008152600401620000ce906200042b565b60405180910390fd5b4286116200011c576040517f08c379a00000000000000000000000000000000000000000000000000000000081526004016200011390620004c3565b60405180910390fd5b82841162000161576040517f08c379a0000000000000000000000000000000000000000000000000000000008152600401620001589062000535565b60405180910390fd5b87600160006101000a81548173ffffffffffffffffffffffffffffffffffffffff021916908373ffffffffffffffffffffffffffffffffffffffff16021790555033600260006101000a81548173ffffffffffffffffffffffffffffffffffffffff021916908373ffffffffffffffffffffffffffffffffffffffff16021790555086600760006101000a81548173ffffffffffffffffffffffffffffffffffffffff021916908373ffffffffffffffffffffffffffffffffffffffff160217905550856005819055508460068190555082600381905550836004819055508160098190555080600a81905550505050505050505062000557565b600080fd5b600073ffffffffffffffffffffffffffffffffffffffff82169050919050565b60006200028e8262000261565b9050919050565b620002a08162000281565b8114620002ac57600080fd5b50565b600081519050620002c08162000295565b92915050565b6000819050919050565b620002db81620002c6565b8114620002e757600080fd5b50565b600081519050620002fb81620002d0565b92915050565b600080600080600080600080610100898b0312156200032557620003246200025c565b5b6000620003358b828c01620002af565b9850506020620003488b828c01620002af565b97505060406200035b8b828c01620002ea565b96505060606200036e8b828c01620002ea565b9550506080620003818b828c01620002ea565b94505060a0620003948b828c01620002ea565b93505060c0620003a78b828c01620002ea565b92505060e0620003ba8b828c01620002ea565b9150509295985092959890939650565b600082825260208201905092915050565b7f696e76616c69642054696d696e67000000000000000000000000000000000000600082015250565b600062000413600e83620003ca565b91506200042082620003db565b602082019050919050565b60006020820190508181036000830152620004468162000404565b9050919050565b7f74696d657374616d702069732067726561746572207468616e2073746172747460008201527f696d650000000000000000000000000000000000000000000000000000000000602082015250565b6000620004ab602383620003ca565b9150620004b8826200044d565b604082019050919050565b60006020820190508181036000830152620004de816200049c565b9050919050565b7f696e56616c6964206275792056616c7565730000000000000000000000000000600082015250565b60006200051d601283620003ca565b91506200052a82620004e5565b602082019050919050565b6000602082019050818103600083015262000550816200050e565b9050919050565b611ec980620005676000396000f3fe608060405234801561001057600080fd5b506004361061018e5760003560e01c80639d76ea58116100de578063cfc7e2ce11610097578063f6304f4f11610071578063f6304f4f14610423578063f66bf2291461043f578063f851a4401461045d578063f89be5931461047b5761018e565b8063cfc7e2ce146103cd578063d897833e146103eb578063f2fde38b146104075761018e565b80639d76ea581461031d578063a4475ce41461033b578063a5a865dc14610359578063b071cbe614610377578063c6eebdcb14610395578063c92501b7146103b15761018e565b806366b21d9d1161014b5780637ca6d8e9116101255780637ca6d8e91461029357806388e765ff146102b15780638da5cb5b146102cf57806399b956a0146102ed5761018e565b806366b21d9d1461023d57806367fa7b761461025957806378e97925146102755761018e565b80630188fdef1461019357806303ff5e73146101af5780631841a524146101cd57806326a4e8d2146101e95780633610724e146102055780633e0a322d14610221575b600080fd5b6101ad60048036038101906101a891906113f9565b610499565b005b6101b7610577565b6040516101c49190611435565b60405180910390f35b6101e760048036038101906101e29190611607565b61057d565b005b61020360048036038101906101fe9190611650565b610684565b005b61021f600480360381019061021a91906113f9565b610758565b005b61023b600480360381019061023691906113f9565b610b8c565b005b61025760048036038101906102529190611650565b610c75565b005b610273600480360381019061026e91906113f9565b610d42565b005b61027d610e20565b60405161028a9190611435565b60405180910390f35b61029b610e26565b6040516102a89190611435565b60405180910390f35b6102b9610e2c565b6040516102c69190611435565b60405180910390f35b6102d7610e32565b6040516102e4919061168c565b60405180910390f35b61030760048036038101906103029190611650565b610e56565b6040516103149190611435565b60405180910390f35b610325610e6e565b604051610332919061168c565b60405180910390f35b610343610e94565b604051610350919061168c565b60405180910390f35b610361610eba565b60405161036e91906116c2565b60405180910390f35b61037f610ecd565b60405161038c9190611435565b60405180910390f35b6103af60048036038101906103aa9190611650565b610ed3565b005b6103cb60048036038101906103c691906113f9565b610fa7565b005b6103d5611090565b6040516103e29190611435565b60405180910390f35b61040560048036038101906104009190611709565b611096565b005b610421600480360381019061041c9190611650565b61110b565b005b61043d60048036038101906104389190611650565b61125a565b005b61044761137d565b6040516104549190611435565b60405180910390f35b610465611383565b604051610472919061168c565b60405180910390f35b6104836113a9565b6040516104909190611435565b60405180910390f35b600260009054906101000a900473ffffffffffffffffffffffffffffffffffffffff1673ffffffffffffffffffffffffffffffffffffffff163373ffffffffffffffffffffffffffffffffffffffff1614610529576040517f08c379a000000000000000000000000000000000000000000000000000000000815260040161052090611793565b60405180910390fd5b600354811161056d576040517f08c379a0000000000000000000000000000000000000000000000000000000008152600401610564906117ff565b60405180910390fd5b8060048190555050565b60065481565b60008054906101000a900473ffffffffffffffffffffffffffffffffffffffff1673ffffffffffffffffffffffffffffffffffffffff163373ffffffffffffffffffffffffffffffffffffffff16146105d557600080fd5b60005b8151811015610680576001600e60008484815181106105fa576105f961181f565b5b602002602001015173ffffffffffffffffffffffffffffffffffffffff1673ffffffffffffffffffffffffffffffffffffffff16815260200190815260200160002060006101000a81548160ff0219169083151502179055506001600b6000828254610666919061187d565b925050819055508080610678906118d3565b9150506105d8565b5050565b600260009054906101000a900473ffffffffffffffffffffffffffffffffffffffff1673ffffffffffffffffffffffffffffffffffffffff163373ffffffffffffffffffffffffffffffffffffffff1614610714576040517f08c379a000000000000000000000000000000000000000000000000000000000815260040161070b90611793565b60405180910390fd5b80600160006101000a81548173ffffffffffffffffffffffffffffffffffffffff021916908373ffffffffffffffffffffffffffffffffffffffff16021790555050565b60004290506003548210156107a2576040517f08c379a00000000000000000000000000000000000000000000000000000000081526004016107999061198e565b60405180910390fd5b6004548211156107e7576040517f08c379a00000000000000000000000000000000000000000000000000000000081526004016107de906119fa565b60405180910390fd5b60065481111561082c576040517f08c379a000000000000000000000000000000000000000000000000000000000815260040161082390611a66565b60405180910390fd5b600554811015610871576040517f08c379a000000000000000000000000000000000000000000000000000000000815260040161086890611ad2565b60405180910390fd5b8160085461087f919061187d565b600a5410156108c3576040517f08c379a00000000000000000000000000000000000000000000000000000000081526004016108ba90611b3e565b60405180910390fd5b60001515600c60009054906101000a900460ff16151514156109735760011515600e60003373ffffffffffffffffffffffffffffffffffffffff1673ffffffffffffffffffffffffffffffffffffffff16815260200190815260200160002060009054906101000a900460ff16151514610972576040517f08c379a000000000000000000000000000000000000000000000000000000000815260040161096990611baa565b60405180910390fd5b5b6000600d60003373ffffffffffffffffffffffffffffffffffffffff1673ffffffffffffffffffffffffffffffffffffffff1681526020019081526020016000205490506000811115610a58576004548110610a04576040517f08c379a00000000000000000000000000000000000000000000000000000000081526004016109fb90611c16565b60405180910390fd5b8281610a10919061187d565b600d60003373ffffffffffffffffffffffffffffffffffffffff1673ffffffffffffffffffffffffffffffffffffffff16815260200190815260200160002081905550610aa8565b8281610a64919061187d565b600d60003373ffffffffffffffffffffffffffffffffffffffff1673ffffffffffffffffffffffffffffffffffffffff168152602001908152602001600020819055505b6000600160009054906101000a900473ffffffffffffffffffffffffffffffffffffffff1690508073ffffffffffffffffffffffffffffffffffffffff166323b872dd33600760009054906101000a900473ffffffffffffffffffffffffffffffffffffffff16876040518463ffffffff1660e01b8152600401610b2e93929190611c36565b6020604051808303816000875af1158015610b4d573d6000803e3d6000fd5b505050506040513d601f19601f82011682018060405250810190610b719190611c82565b5083600854610b80919061187d565b60088190555050505050565b600260009054906101000a900473ffffffffffffffffffffffffffffffffffffffff1673ffffffffffffffffffffffffffffffffffffffff163373ffffffffffffffffffffffffffffffffffffffff1614610c1c576040517f08c379a0000000000000000000000000000000000000000000000000000000008152600401610c1390611793565b60405180910390fd5b60065481108015610c2c57504281115b610c6b576040517f08c379a0000000000000000000000000000000000000000000000000000000008152600401610c6290611cfb565b60405180910390fd5b8060058190555050565b60008054906101000a900473ffffffffffffffffffffffffffffffffffffffff1673ffffffffffffffffffffffffffffffffffffffff163373ffffffffffffffffffffffffffffffffffffffff1614610ccd57600080fd5b6000600e60008373ffffffffffffffffffffffffffffffffffffffff1673ffffffffffffffffffffffffffffffffffffffff16815260200190815260200160002060006101000a81548160ff0219169083151502179055506001600b6000828254610d389190611d1b565b9250508190555050565b600260009054906101000a900473ffffffffffffffffffffffffffffffffffffffff1673ffffffffffffffffffffffffffffffffffffffff163373ffffffffffffffffffffffffffffffffffffffff1614610dd2576040517f08c379a0000000000000000000000000000000000000000000000000000000008152600401610dc990611793565b60405180910390fd5b6004548110610e16576040517f08c379a0000000000000000000000000000000000000000000000000000000008152600401610e0d90611d9b565b60405180910390fd5b8060038190555050565b60055481565b600b5481565b60045481565b60008054906101000a900473ffffffffffffffffffffffffffffffffffffffff1681565b600d6020528060005260406000206000915090505481565b600160009054906101000a900473ffffffffffffffffffffffffffffffffffffffff1681565b600760009054906101000a900473ffffffffffffffffffffffffffffffffffffffff1681565b600c60009054906101000a900460ff1681565b600a5481565b600260009054906101000a900473ffffffffffffffffffffffffffffffffffffffff1673ffffffffffffffffffffffffffffffffffffffff163373ffffffffffffffffffffffffffffffffffffffff1614610f63576040517f08c379a0000000000000000000000000000000000000000000000000000000008152600401610f5a90611793565b60405180910390fd5b80600760006101000a81548173ffffffffffffffffffffffffffffffffffffffff021916908373ffffffffffffffffffffffffffffffffffffffff16021790555050565b600260009054906101000a900473ffffffffffffffffffffffffffffffffffffffff1673ffffffffffffffffffffffffffffffffffffffff163373ffffffffffffffffffffffffffffffffffffffff1614611037576040517f08c379a000000000000000000000000000000000000000000000000000000000815260040161102e90611793565b60405180910390fd5b6005548111801561104757504281115b611086576040517f08c379a000000000000000000000000000000000000000000000000000000000815260040161107d90611e07565b60405180910390fd5b8060068190555050565b60085481565b60008054906101000a900473ffffffffffffffffffffffffffffffffffffffff1673ffffffffffffffffffffffffffffffffffffffff163373ffffffffffffffffffffffffffffffffffffffff16146110ee57600080fd5b80600c60006101000a81548160ff02191690831515021790555050565b60008054906101000a900473ffffffffffffffffffffffffffffffffffffffff1673ffffffffffffffffffffffffffffffffffffffff163373ffffffffffffffffffffffffffffffffffffffff161461116357600080fd5b600073ffffffffffffffffffffffffffffffffffffffff168173ffffffffffffffffffffffffffffffffffffffff16141561119d57600080fd5b8073ffffffffffffffffffffffffffffffffffffffff1660008054906101000a900473ffffffffffffffffffffffffffffffffffffffff1673ffffffffffffffffffffffffffffffffffffffff167f8be0079c531659141344cd1fd0a4f28419497f9722a3daafe3b4186f6b6457e060405160405180910390a3806000806101000a81548173ffffffffffffffffffffffffffffffffffffffff021916908373ffffffffffffffffffffffffffffffffffffffff16021790555050565b60008054906101000a900473ffffffffffffffffffffffffffffffffffffffff1673ffffffffffffffffffffffffffffffffffffffff163373ffffffffffffffffffffffffffffffffffffffff16146112b257600080fd5b60001515600c60009054906101000a900460ff16151514611308576040517f08c379a00000000000000000000000000000000000000000000000000000000081526004016112ff90611e73565b60405180910390fd5b6001600e60008373ffffffffffffffffffffffffffffffffffffffff1673ffffffffffffffffffffffffffffffffffffffff16815260200190815260200160002060006101000a81548160ff0219169083151502179055506001600b6000828254611373919061187d565b9250508190555050565b60035481565b600260009054906101000a900473ffffffffffffffffffffffffffffffffffffffff1681565b60095481565b6000604051905090565b600080fd5b600080fd5b6000819050919050565b6113d6816113c3565b81146113e157600080fd5b50565b6000813590506113f3816113cd565b92915050565b60006020828403121561140f5761140e6113b9565b5b600061141d848285016113e4565b91505092915050565b61142f816113c3565b82525050565b600060208201905061144a6000830184611426565b92915050565b600080fd5b6000601f19601f8301169050919050565b7f4e487b7100000000000000000000000000000000000000000000000000000000600052604160045260246000fd5b61149e82611455565b810181811067ffffffffffffffff821117156114bd576114bc611466565b5b80604052505050565b60006114d06113af565b90506114dc8282611495565b919050565b600067ffffffffffffffff8211156114fc576114fb611466565b5b602082029050602081019050919050565b600080fd5b600073ffffffffffffffffffffffffffffffffffffffff82169050919050565b600061153d82611512565b9050919050565b61154d81611532565b811461155857600080fd5b50565b60008135905061156a81611544565b92915050565b600061158361157e846114e1565b6114c6565b905080838252602082019050602084028301858111156115a6576115a561150d565b5b835b818110156115cf57806115bb888261155b565b8452602084019350506020810190506115a8565b5050509392505050565b600082601f8301126115ee576115ed611450565b5b81356115fe848260208601611570565b91505092915050565b60006020828403121561161d5761161c6113b9565b5b600082013567ffffffffffffffff81111561163b5761163a6113be565b5b611647848285016115d9565b91505092915050565b600060208284031215611666576116656113b9565b5b60006116748482850161155b565b91505092915050565b61168681611532565b82525050565b60006020820190506116a1600083018461167d565b92915050565b60008115159050919050565b6116bc816116a7565b82525050565b60006020820190506116d760008301846116b3565b92915050565b6116e6816116a7565b81146116f157600080fd5b50565b600081359050611703816116dd565b92915050565b60006020828403121561171f5761171e6113b9565b5b600061172d848285016116f4565b91505092915050565b600082825260208201905092915050565b7f6f6e6c792061646d696e2063616e2063616c6c20746869732066756e6374696f600082015250565b600061177d602083611736565b915061178882611747565b602082019050919050565b600060208201905081810360008301526117ac81611770565b9050919050565b7f4d61782042557920746f6f206c6f770000000000000000000000000000000000600082015250565b60006117e9600f83611736565b91506117f4826117b3565b602082019050919050565b60006020820190508181036000830152611818816117dc565b9050919050565b7f4e487b7100000000000000000000000000000000000000000000000000000000600052603260045260246000fd5b7f4e487b7100000000000000000000000000000000000000000000000000000000600052601160045260246000fd5b6000611888826113c3565b9150611893836113c3565b9250827fffffffffffffffffffffffffffffffffffffffffffffffffffffffffffffffff038211156118c8576118c761184e565b5b828201905092915050565b60006118de826113c3565b91507fffffffffffffffffffffffffffffffffffffffffffffffffffffffffffffffff8214156119115761191061184e565b5b600182019050919050565b7f416d6f756e742069732062656c6f77206d696e696d756d20627579206c696d6960008201527f7400000000000000000000000000000000000000000000000000000000000000602082015250565b6000611978602183611736565b91506119838261191c565b604082019050919050565b600060208201905081810360008301526119a78161196b565b9050919050565b7f416d6f756e742065786365656473206d6178696d756d20627579206c696d6974600082015250565b60006119e4602083611736565b91506119ef826119ae565b602082019050919050565b60006020820190508181036000830152611a13816119d7565b9050919050565b7f2053616c652068617320656e6465640000000000000000000000000000000000600082015250565b6000611a50600f83611736565b9150611a5b82611a1a565b602082019050919050565b60006020820190508181036000830152611a7f81611a43565b9050919050565b7f2053616c6520486173206e6f7420537461727465640000000000000000000000600082015250565b6000611abc601583611736565b9150611ac782611a86565b602082019050919050565b60006020820190508181036000830152611aeb81611aaf565b9050919050565b7f6861726443617020726561636865640000000000000000000000000000000000600082015250565b6000611b28600f83611736565b9150611b3382611af2565b602082019050919050565b60006020820190508181036000830152611b5781611b1b565b9050919050565b7f596f75722068617665206e6f74206265656e207768697465206c697374656400600082015250565b6000611b94601f83611736565b9150611b9f82611b5e565b602082019050919050565b60006020820190508181036000830152611bc381611b87565b9050919050565b7f596f752068617665204578636565646564206d6178696d756d20627579000000600082015250565b6000611c00601d83611736565b9150611c0b82611bca565b602082019050919050565b60006020820190508181036000830152611c2f81611bf3565b9050919050565b6000606082019050611c4b600083018661167d565b611c58602083018561167d565b611c656040830184611426565b949350505050565b600081519050611c7c816116dd565b92915050565b600060208284031215611c9857611c976113b9565b5b6000611ca684828501611c6d565b91505092915050565b7f73746172742067726561746572207468616e2073746f702074696d6500000000600082015250565b6000611ce5601c83611736565b9150611cf082611caf565b602082019050919050565b60006020820190508181036000830152611d1481611cd8565b9050919050565b6000611d26826113c3565b9150611d31836113c3565b925082821015611d4457611d4361184e565b5b828203905092915050565b7f4d696e2042557920746f6f206c6f770000000000000000000000000000000000600082015250565b6000611d85600f83611736565b9150611d9082611d4f565b602082019050919050565b60006020820190508181036000830152611db481611d78565b9050919050565b7f53746f702074696d6520746f6f206c6f77000000000000000000000000000000600082015250565b6000611df1601183611736565b9150611dfc82611dbb565b602082019050919050565b60006020820190508181036000830152611e2081611de4565b9050919050565b7f54686973206973207075626c69632053616c6500000000000000000000000000600082015250565b6000611e5d601383611736565b9150611e6882611e27565b602082019050919050565b60006020820190508181036000830152611e8c81611e50565b905091905056fea264697066735822122028120af358878b927dcf53064de51f98890efb6deee399cab5763fc258d76e2c64736f6c634300080c0033",
	"linkReferences": {},
	"deployedLinkReferences": {}
}