{
	"_format": "hh-sol-artifact-1",
	"contractName": "SolimaxPublicSaleETH",
	"sourceName": "contracts/SeedifyFund/PublicSaleEth.sol",
	"abi": [
		{
			"inputs": [
				{
					"internalType": "address",
					"name": "_tokenAddress",
					"type": "address"
				},
				{
					"internalType": "address",
					"name": "_projOwner",
					"type": "address"
				},
				{
					"internalType": "uint256",
					"name": "_startTime",
					"type": "uint256"
				},
				{
					"internalType": "uint256",
					"name": "_stopTime",
					"type": "uint256"
				},
				{
					"internalType": "uint256",
					"name": "_maxBuy",
					"type": "uint256"
				},
				{
					"internalType": "uint256",
					"name": "_minBuy",
					"type": "uint256"
				},
				{
					"internalType": "uint256",
					"name": "_softcap",
					"type": "uint256"
				},
				{
					"internalType": "uint256",
					"name": "_hardcap",
					"type": "uint256"
				}
			],
			"stateMutability": "nonpayable",
			"type": "constructor"
		},
		{
			"anonymous": false,
			"inputs": [
				{
					"indexed": true,
					"internalType": "address",
					"name": "previousOwner",
					"type": "address"
				},
				{
					"indexed": true,
					"internalType": "address",
					"name": "newOwner",
					"type": "address"
				}
			],
			"name": "OwnershipTransferred",
			"type": "event"
		},
		{
			"inputs": [
				{
					"internalType": "address",
					"name": "",
					"type": "address"
				}
			],
			"name": "Users",
			"outputs": [
				{
					"internalType": "uint256",
					"name": "",
					"type": "uint256"
				}
			],
			"stateMutability": "view",
			"type": "function"
		},
		{
			"inputs": [
				{
					"internalType": "address[]",
					"name": "_users",
					"type": "address[]"
				}
			],
			"name": "addManyUsersToWhiteList",
			"outputs": [],
			"stateMutability": "nonpayable",
			"type": "function"
		},
		{
			"inputs": [
				{
					"internalType": "address",
					"name": "newUser",
					"type": "address"
				}
			],
			"name": "addToWhitelistOwner",
			"outputs": [],
			"stateMutability": "nonpayable",
			"type": "function"
		},
		{
			"inputs": [],
			"name": "admin",
			"outputs": [
				{
					"internalType": "address",
					"name": "",
					"type": "address"
				}
			],
			"stateMutability": "view",
			"type": "function"
		},
		{
			"inputs": [],
			"name": "buyTokens",
			"outputs": [],
			"stateMutability": "payable",
			"type": "function"
		},
		{
			"inputs": [],
			"name": "currentWhitelistUsers",
			"outputs": [
				{
					"internalType": "uint256",
					"name": "",
					"type": "uint256"
				}
			],
			"stateMutability": "view",
			"type": "function"
		},
		{
			"inputs": [],
			"name": "hardcap",
			"outputs": [
				{
					"internalType": "uint256",
					"name": "",
					"type": "uint256"
				}
			],
			"stateMutability": "view",
			"type": "function"
		},
		{
			"inputs": [],
			"name": "isPublicSale",
			"outputs": [
				{
					"internalType": "bool",
					"name": "",
					"type": "bool"
				}
			],
			"stateMutability": "view",
			"type": "function"
		},
		{
			"inputs": [],
			"name": "maxBuyAmount",
			"outputs": [
				{
					"internalType": "uint256",
					"name": "",
					"type": "uint256"
				}
			],
			"stateMutability": "view",
			"type": "function"
		},
		{
			"inputs": [],
			"name": "minBuyAmount",
			"outputs": [
				{
					"internalType": "uint256",
					"name": "",
					"type": "uint256"
				}
			],
			"stateMutability": "view",
			"type": "function"
		},
		{
			"inputs": [],
			"name": "owner",
			"outputs": [
				{
					"internalType": "address",
					"name": "",
					"type": "address"
				}
			],
			"stateMutability": "view",
			"type": "function"
		},
		{
			"inputs": [],
			"name": "projectOwner",
			"outputs": [
				{
					"internalType": "address",
					"name": "",
					"type": "address"
				}
			],
			"stateMutability": "view",
			"type": "function"
		},
		{
			"inputs": [
				{
					"internalType": "address",
					"name": "newUser",
					"type": "address"
				}
			],
			"name": "removeToWhitelistOwner",
			"outputs": [],
			"stateMutability": "nonpayable",
			"type": "function"
		},
		{
			"inputs": [
				{
					"internalType": "uint256",
					"name": "newMaxBUy",
					"type": "uint256"
				}
			],
			"name": "setMaximumBuy",
			"outputs": [],
			"stateMutability": "nonpayable",
			"type": "function"
		},
		{
			"inputs": [
				{
					"internalType": "uint256",
					"name": "newMinimuBUy",
					"type": "uint256"
				}
			],
			"name": "setMiniumBuy",
			"outputs": [],
			"stateMutability": "nonpayable",
			"type": "function"
		},
		{
			"inputs": [
				{
					"internalType": "address",
					"name": "_newAddress",
					"type": "address"
				}
			],
			"name": "setNewProjectOwner",
			"outputs": [],
			"stateMutability": "nonpayable",
			"type": "function"
		},
		{
			"inputs": [
				{
					"internalType": "bool",
					"name": "_saleStatus",
					"type": "bool"
				}
			],
			"name": "setSaleStatus",
			"outputs": [],
			"stateMutability": "nonpayable",
			"type": "function"
		},
		{
			"inputs": [
				{
					"internalType": "uint256",
					"name": "_newTime",
					"type": "uint256"
				}
			],
			"name": "setStartTime",
			"outputs": [],
			"stateMutability": "nonpayable",
			"type": "function"
		},
		{
			"inputs": [
				{
					"internalType": "uint256",
					"name": "_newStopTime",
					"type": "uint256"
				}
			],
			"name": "setStopTime",
			"outputs": [],
			"stateMutability": "nonpayable",
			"type": "function"
		},
		{
			"inputs": [
				{
					"internalType": "address",
					"name": "newAddress",
					"type": "address"
				}
			],
			"name": "setTokenAddress",
			"outputs": [],
			"stateMutability": "nonpayable",
			"type": "function"
		},
		{
			"inputs": [],
			"name": "softcap",
			"outputs": [
				{
					"internalType": "uint256",
					"name": "",
					"type": "uint256"
				}
			],
			"stateMutability": "view",
			"type": "function"
		},
		{
			"inputs": [],
			"name": "startTime",
			"outputs": [
				{
					"internalType": "uint256",
					"name": "",
					"type": "uint256"
				}
			],
			"stateMutability": "view",
			"type": "function"
		},
		{
			"inputs": [],
			"name": "stopTime",
			"outputs": [
				{
					"internalType": "uint256",
					"name": "",
					"type": "uint256"
				}
			],
			"stateMutability": "view",
			"type": "function"
		},
		{
			"inputs": [],
			"name": "tokenAddress",
			"outputs": [
				{
					"internalType": "address",
					"name": "",
					"type": "address"
				}
			],
			"stateMutability": "view",
			"type": "function"
		},
		{
			"inputs": [],
			"name": "totalUSDCReceivedInAllTier",
			"outputs": [
				{
					"internalType": "uint256",
					"name": "",
					"type": "uint256"
				}
			],
			"stateMutability": "view",
			"type": "function"
		},
		{
			"inputs": [
				{
					"internalType": "address",
					"name": "newOwner",
					"type": "address"
				}
			],
			"name": "transferOwnership",
			"outputs": [],
			"stateMutability": "nonpayable",
			"type": "function"
		}
	],
	"bytecode": "0x60806040526001600c60006101000a81548160ff0219169083151502179055503480156200002c57600080fd5b506040516200241138038062002411833981810160405281019062000052919062000301565b336000806101000a81548173ffffffffffffffffffffffffffffffffffffffff021916908373ffffffffffffffffffffffffffffffffffffffff160217905550858511620000d7576040517f08c379a0000000000000000000000000000000000000000000000000000000008152600401620000ce906200042b565b60405180910390fd5b4286116200011c576040517f08c379a00000000000000000000000000000000000000000000000000000000081526004016200011390620004c3565b60405180910390fd5b82841162000161576040517f08c379a0000000000000000000000000000000000000000000000000000000008152600401620001589062000535565b60405180910390fd5b87600160006101000a81548173ffffffffffffffffffffffffffffffffffffffff021916908373ffffffffffffffffffffffffffffffffffffffff16021790555033600260006101000a81548173ffffffffffffffffffffffffffffffffffffffff021916908373ffffffffffffffffffffffffffffffffffffffff16021790555086600760006101000a81548173ffffffffffffffffffffffffffffffffffffffff021916908373ffffffffffffffffffffffffffffffffffffffff160217905550856005819055508460068190555082600381905550836004819055508160098190555080600a81905550505050505050505062000557565b600080fd5b600073ffffffffffffffffffffffffffffffffffffffff82169050919050565b60006200028e8262000261565b9050919050565b620002a08162000281565b8114620002ac57600080fd5b50565b600081519050620002c08162000295565b92915050565b6000819050919050565b620002db81620002c6565b8114620002e757600080fd5b50565b600081519050620002fb81620002d0565b92915050565b600080600080600080600080610100898b0312156200032557620003246200025c565b5b6000620003358b828c01620002af565b9850506020620003488b828c01620002af565b97505060406200035b8b828c01620002ea565b96505060606200036e8b828c01620002ea565b9550506080620003818b828c01620002ea565b94505060a0620003948b828c01620002ea565b93505060c0620003a78b828c01620002ea565b92505060e0620003ba8b828c01620002ea565b9150509295985092959890939650565b600082825260208201905092915050565b7f696e76616c69642054696d696e67000000000000000000000000000000000000600082015250565b600062000413600e83620003ca565b91506200042082620003db565b602082019050919050565b60006020820190508181036000830152620004468162000404565b9050919050565b7f74696d657374616d702069732067726561746572207468616e2073746172747460008201527f696d650000000000000000000000000000000000000000000000000000000000602082015250565b6000620004ab602383620003ca565b9150620004b8826200044d565b604082019050919050565b60006020820190508181036000830152620004de816200049c565b9050919050565b7f696e56616c6964206275792056616c7565730000000000000000000000000000600082015250565b60006200051d601283620003ca565b91506200052a82620004e5565b602082019050919050565b6000602082019050818103600083015262000550816200050e565b9050919050565b611eaa80620005676000396000f3fe6080604052600436106101815760003560e01c8063a4475ce4116100d1578063d0febe4c1161008a578063f6304f4f11610064578063f6304f4f14610515578063f66bf2291461053e578063f851a44014610569578063f89be5931461059457610181565b8063d0febe4c146104b9578063d897833e146104c3578063f2fde38b146104ec57610181565b8063a4475ce4146103bb578063a5a865dc146103e6578063b071cbe614610411578063c6eebdcb1461043c578063c92501b714610465578063cfc7e2ce1461048e57610181565b806367fa7b761161013e57806388e765ff1161011857806388e765ff146102fd5780638da5cb5b1461032857806399b956a0146103535780639d76ea581461039057610181565b806367fa7b761461027e57806378e97925146102a75780637ca6d8e9146102d257610181565b80630188fdef1461018657806303ff5e73146101af5780631841a524146101da57806326a4e8d2146102035780633e0a322d1461022c57806366b21d9d14610255575b600080fd5b34801561019257600080fd5b506101ad60048036038101906101a89190611453565b6105bf565b005b3480156101bb57600080fd5b506101c461069d565b6040516101d1919061148f565b60405180910390f35b3480156101e657600080fd5b5061020160048036038101906101fc9190611661565b6106a3565b005b34801561020f57600080fd5b5061022a600480360381019061022591906116aa565b6107aa565b005b34801561023857600080fd5b50610253600480360381019061024e9190611453565b61087e565b005b34801561026157600080fd5b5061027c600480360381019061027791906116aa565b610967565b005b34801561028a57600080fd5b506102a560048036038101906102a09190611453565b610a34565b005b3480156102b357600080fd5b506102bc610b12565b6040516102c9919061148f565b60405180910390f35b3480156102de57600080fd5b506102e7610b18565b6040516102f4919061148f565b60405180910390f35b34801561030957600080fd5b50610312610b1e565b60405161031f919061148f565b60405180910390f35b34801561033457600080fd5b5061033d610b24565b60405161034a91906116e6565b60405180910390f35b34801561035f57600080fd5b5061037a600480360381019061037591906116aa565b610b48565b604051610387919061148f565b60405180910390f35b34801561039c57600080fd5b506103a5610b60565b6040516103b291906116e6565b60405180910390f35b3480156103c757600080fd5b506103d0610b86565b6040516103dd91906116e6565b60405180910390f35b3480156103f257600080fd5b506103fb610bac565b604051610408919061171c565b60405180910390f35b34801561041d57600080fd5b50610426610bbf565b604051610433919061148f565b60405180910390f35b34801561044857600080fd5b50610463600480360381019061045e91906116aa565b610bc5565b005b34801561047157600080fd5b5061048c60048036038101906104879190611453565b610c99565b005b34801561049a57600080fd5b506104a3610d82565b6040516104b0919061148f565b60405180910390f35b6104c1610d88565b005b3480156104cf57600080fd5b506104ea60048036038101906104e59190611763565b6110f0565b005b3480156104f857600080fd5b50610513600480360381019061050e91906116aa565b611165565b005b34801561052157600080fd5b5061053c600480360381019061053791906116aa565b6112b4565b005b34801561054a57600080fd5b506105536113d7565b604051610560919061148f565b60405180910390f35b34801561057557600080fd5b5061057e6113dd565b60405161058b91906116e6565b60405180910390f35b3480156105a057600080fd5b506105a9611403565b6040516105b6919061148f565b60405180910390f35b600260009054906101000a900473ffffffffffffffffffffffffffffffffffffffff1673ffffffffffffffffffffffffffffffffffffffff163373ffffffffffffffffffffffffffffffffffffffff161461064f576040517f08c379a0000000000000000000000000000000000000000000000000000000008152600401610646906117ed565b60405180910390fd5b6003548111610693576040517f08c379a000000000000000000000000000000000000000000000000000000000815260040161068a90611859565b60405180910390fd5b8060048190555050565b60065481565b60008054906101000a900473ffffffffffffffffffffffffffffffffffffffff1673ffffffffffffffffffffffffffffffffffffffff163373ffffffffffffffffffffffffffffffffffffffff16146106fb57600080fd5b60005b81518110156107a6576001600e60008484815181106107205761071f611879565b5b602002602001015173ffffffffffffffffffffffffffffffffffffffff1673ffffffffffffffffffffffffffffffffffffffff16815260200190815260200160002060006101000a81548160ff0219169083151502179055506001600b600082825461078c91906118d7565b92505081905550808061079e9061192d565b9150506106fe565b5050565b600260009054906101000a900473ffffffffffffffffffffffffffffffffffffffff1673ffffffffffffffffffffffffffffffffffffffff163373ffffffffffffffffffffffffffffffffffffffff161461083a576040517f08c379a0000000000000000000000000000000000000000000000000000000008152600401610831906117ed565b60405180910390fd5b80600160006101000a81548173ffffffffffffffffffffffffffffffffffffffff021916908373ffffffffffffffffffffffffffffffffffffffff16021790555050565b600260009054906101000a900473ffffffffffffffffffffffffffffffffffffffff1673ffffffffffffffffffffffffffffffffffffffff163373ffffffffffffffffffffffffffffffffffffffff161461090e576040517f08c379a0000000000000000000000000000000000000000000000000000000008152600401610905906117ed565b60405180910390fd5b6006548110801561091e57504281115b61095d576040517f08c379a0000000000000000000000000000000000000000000000000000000008152600401610954906119c2565b60405180910390fd5b8060058190555050565b60008054906101000a900473ffffffffffffffffffffffffffffffffffffffff1673ffffffffffffffffffffffffffffffffffffffff163373ffffffffffffffffffffffffffffffffffffffff16146109bf57600080fd5b6000600e60008373ffffffffffffffffffffffffffffffffffffffff1673ffffffffffffffffffffffffffffffffffffffff16815260200190815260200160002060006101000a81548160ff0219169083151502179055506001600b6000828254610a2a91906119e2565b9250508190555050565b600260009054906101000a900473ffffffffffffffffffffffffffffffffffffffff1673ffffffffffffffffffffffffffffffffffffffff163373ffffffffffffffffffffffffffffffffffffffff1614610ac4576040517f08c379a0000000000000000000000000000000000000000000000000000000008152600401610abb906117ed565b60405180910390fd5b6004548110610b08576040517f08c379a0000000000000000000000000000000000000000000000000000000008152600401610aff90611a62565b60405180910390fd5b8060038190555050565b60055481565b600b5481565b60045481565b60008054906101000a900473ffffffffffffffffffffffffffffffffffffffff1681565b600d6020528060005260406000206000915090505481565b600160009054906101000a900473ffffffffffffffffffffffffffffffffffffffff1681565b600760009054906101000a900473ffffffffffffffffffffffffffffffffffffffff1681565b600c60009054906101000a900460ff1681565b600a5481565b600260009054906101000a900473ffffffffffffffffffffffffffffffffffffffff1673ffffffffffffffffffffffffffffffffffffffff163373ffffffffffffffffffffffffffffffffffffffff1614610c55576040517f08c379a0000000000000000000000000000000000000000000000000000000008152600401610c4c906117ed565b60405180910390fd5b80600760006101000a81548173ffffffffffffffffffffffffffffffffffffffff021916908373ffffffffffffffffffffffffffffffffffffffff16021790555050565b600260009054906101000a900473ffffffffffffffffffffffffffffffffffffffff1673ffffffffffffffffffffffffffffffffffffffff163373ffffffffffffffffffffffffffffffffffffffff1614610d29576040517f08c379a0000000000000000000000000000000000000000000000000000000008152600401610d20906117ed565b60405180910390fd5b60055481118015610d3957504281115b610d78576040517f08c379a0000000000000000000000000000000000000000000000000000000008152600401610d6f90611ace565b60405180910390fd5b8060068190555050565b60085481565b6000429050600354341015610dd2576040517f08c379a0000000000000000000000000000000000000000000000000000000008152600401610dc990611b60565b60405180910390fd5b600454341115610e17576040517f08c379a0000000000000000000000000000000000000000000000000000000008152600401610e0e90611bcc565b60405180910390fd5b600654811115610e5c576040517f08c379a0000000000000000000000000000000000000000000000000000000008152600401610e5390611c38565b60405180910390fd5b600554811015610ea1576040517f08c379a0000000000000000000000000000000000000000000000000000000008152600401610e9890611ca4565b60405180910390fd5b34600854610eaf91906118d7565b600a541015610ef3576040517f08c379a0000000000000000000000000000000000000000000000000000000008152600401610eea90611d10565b60405180910390fd5b60001515600c60009054906101000a900460ff1615151415610fa35760011515600e60003373ffffffffffffffffffffffffffffffffffffffff1673ffffffffffffffffffffffffffffffffffffffff16815260200190815260200160002060009054906101000a900460ff16151514610fa2576040517f08c379a0000000000000000000000000000000000000000000000000000000008152600401610f9990611d7c565b60405180910390fd5b5b6000600d60003373ffffffffffffffffffffffffffffffffffffffff1673ffffffffffffffffffffffffffffffffffffffff1681526020019081526020016000205490506000811115611088576004548110611034576040517f08c379a000000000000000000000000000000000000000000000000000000000815260040161102b90611de8565b60405180910390fd5b348161104091906118d7565b600d60003373ffffffffffffffffffffffffffffffffffffffff1673ffffffffffffffffffffffffffffffffffffffff168152602001908152602001600020819055506110d8565b348161109491906118d7565b600d60003373ffffffffffffffffffffffffffffffffffffffff1673ffffffffffffffffffffffffffffffffffffffff168152602001908152602001600020819055505b346008546110e691906118d7565b6008819055505050565b60008054906101000a900473ffffffffffffffffffffffffffffffffffffffff1673ffffffffffffffffffffffffffffffffffffffff163373ffffffffffffffffffffffffffffffffffffffff161461114857600080fd5b80600c60006101000a81548160ff02191690831515021790555050565b60008054906101000a900473ffffffffffffffffffffffffffffffffffffffff1673ffffffffffffffffffffffffffffffffffffffff163373ffffffffffffffffffffffffffffffffffffffff16146111bd57600080fd5b600073ffffffffffffffffffffffffffffffffffffffff168173ffffffffffffffffffffffffffffffffffffffff1614156111f757600080fd5b8073ffffffffffffffffffffffffffffffffffffffff1660008054906101000a900473ffffffffffffffffffffffffffffffffffffffff1673ffffffffffffffffffffffffffffffffffffffff167f8be0079c531659141344cd1fd0a4f28419497f9722a3daafe3b4186f6b6457e060405160405180910390a3806000806101000a81548173ffffffffffffffffffffffffffffffffffffffff021916908373ffffffffffffffffffffffffffffffffffffffff16021790555050565b60008054906101000a900473ffffffffffffffffffffffffffffffffffffffff1673ffffffffffffffffffffffffffffffffffffffff163373ffffffffffffffffffffffffffffffffffffffff161461130c57600080fd5b60001515600c60009054906101000a900460ff16151514611362576040517f08c379a000000000000000000000000000000000000000000000000000000000815260040161135990611e54565b60405180910390fd5b6001600e60008373ffffffffffffffffffffffffffffffffffffffff1673ffffffffffffffffffffffffffffffffffffffff16815260200190815260200160002060006101000a81548160ff0219169083151502179055506001600b60008282546113cd91906118d7565b9250508190555050565b60035481565b600260009054906101000a900473ffffffffffffffffffffffffffffffffffffffff1681565b60095481565b6000604051905090565b600080fd5b600080fd5b6000819050919050565b6114308161141d565b811461143b57600080fd5b50565b60008135905061144d81611427565b92915050565b60006020828403121561146957611468611413565b5b60006114778482850161143e565b91505092915050565b6114898161141d565b82525050565b60006020820190506114a46000830184611480565b92915050565b600080fd5b6000601f19601f8301169050919050565b7f4e487b7100000000000000000000000000000000000000000000000000000000600052604160045260246000fd5b6114f8826114af565b810181811067ffffffffffffffff82111715611517576115166114c0565b5b80604052505050565b600061152a611409565b905061153682826114ef565b919050565b600067ffffffffffffffff821115611556576115556114c0565b5b602082029050602081019050919050565b600080fd5b600073ffffffffffffffffffffffffffffffffffffffff82169050919050565b60006115978261156c565b9050919050565b6115a78161158c565b81146115b257600080fd5b50565b6000813590506115c48161159e565b92915050565b60006115dd6115d88461153b565b611520565b90508083825260208201905060208402830185811115611600576115ff611567565b5b835b81811015611629578061161588826115b5565b845260208401935050602081019050611602565b5050509392505050565b600082601f830112611648576116476114aa565b5b81356116588482602086016115ca565b91505092915050565b60006020828403121561167757611676611413565b5b600082013567ffffffffffffffff81111561169557611694611418565b5b6116a184828501611633565b91505092915050565b6000602082840312156116c0576116bf611413565b5b60006116ce848285016115b5565b91505092915050565b6116e08161158c565b82525050565b60006020820190506116fb60008301846116d7565b92915050565b60008115159050919050565b61171681611701565b82525050565b6000602082019050611731600083018461170d565b92915050565b61174081611701565b811461174b57600080fd5b50565b60008135905061175d81611737565b92915050565b60006020828403121561177957611778611413565b5b60006117878482850161174e565b91505092915050565b600082825260208201905092915050565b7f6f6e6c792061646d696e2063616e2063616c6c20746869732066756e6374696f600082015250565b60006117d7602083611790565b91506117e2826117a1565b602082019050919050565b60006020820190508181036000830152611806816117ca565b9050919050565b7f4d61782042557920746f6f206c6f770000000000000000000000000000000000600082015250565b6000611843600f83611790565b915061184e8261180d565b602082019050919050565b6000602082019050818103600083015261187281611836565b9050919050565b7f4e487b7100000000000000000000000000000000000000000000000000000000600052603260045260246000fd5b7f4e487b7100000000000000000000000000000000000000000000000000000000600052601160045260246000fd5b60006118e28261141d565b91506118ed8361141d565b9250827fffffffffffffffffffffffffffffffffffffffffffffffffffffffffffffffff03821115611922576119216118a8565b5b828201905092915050565b60006119388261141d565b91507fffffffffffffffffffffffffffffffffffffffffffffffffffffffffffffffff82141561196b5761196a6118a8565b5b600182019050919050565b7f73746172742067726561746572207468616e2073746f702074696d6500000000600082015250565b60006119ac601c83611790565b91506119b782611976565b602082019050919050565b600060208201905081810360008301526119db8161199f565b9050919050565b60006119ed8261141d565b91506119f88361141d565b925082821015611a0b57611a0a6118a8565b5b828203905092915050565b7f4d696e2042557920746f6f206c6f770000000000000000000000000000000000600082015250565b6000611a4c600f83611790565b9150611a5782611a16565b602082019050919050565b60006020820190508181036000830152611a7b81611a3f565b9050919050565b7f53746f702074696d6520746f6f206c6f77000000000000000000000000000000600082015250565b6000611ab8601183611790565b9150611ac382611a82565b602082019050919050565b60006020820190508181036000830152611ae781611aab565b9050919050565b7f416d6f756e742069732062656c6f77206d696e696d756d20627579206c696d6960008201527f7400000000000000000000000000000000000000000000000000000000000000602082015250565b6000611b4a602183611790565b9150611b5582611aee565b604082019050919050565b60006020820190508181036000830152611b7981611b3d565b9050919050565b7f416d6f756e742065786365656473206d6178696d756d20627579206c696d6974600082015250565b6000611bb6602083611790565b9150611bc182611b80565b602082019050919050565b60006020820190508181036000830152611be581611ba9565b9050919050565b7f2053616c652068617320656e6465640000000000000000000000000000000000600082015250565b6000611c22600f83611790565b9150611c2d82611bec565b602082019050919050565b60006020820190508181036000830152611c5181611c15565b9050919050565b7f2053616c6520486173206e6f7420537461727465640000000000000000000000600082015250565b6000611c8e601583611790565b9150611c9982611c58565b602082019050919050565b60006020820190508181036000830152611cbd81611c81565b9050919050565b7f6861726443617020726561636865640000000000000000000000000000000000600082015250565b6000611cfa600f83611790565b9150611d0582611cc4565b602082019050919050565b60006020820190508181036000830152611d2981611ced565b9050919050565b7f596f75722068617665206e6f74206265656e207768697465206c697374656400600082015250565b6000611d66601f83611790565b9150611d7182611d30565b602082019050919050565b60006020820190508181036000830152611d9581611d59565b9050919050565b7f596f752068617665204578636565646564206d6178696d756d20627579000000600082015250565b6000611dd2601d83611790565b9150611ddd82611d9c565b602082019050919050565b60006020820190508181036000830152611e0181611dc5565b9050919050565b7f54686973206973207075626c69632053616c6500000000000000000000000000600082015250565b6000611e3e601383611790565b9150611e4982611e08565b602082019050919050565b60006020820190508181036000830152611e6d81611e31565b905091905056fea264697066735822122036c84e5abe3c02287f9f0612a3bde8a55673e249befff3ee3fa6b8e7c249073464736f6c634300080c0033",
	"linkReferences": {},
	"deployedLinkReferences": {}
}