{
  "_format": "hh-sol-artifact-1",
  "contractName": "SolimaxNft",
  "sourceName": "contracts/solimax-nft.sol",
  "abi": [
    {
      "inputs": [],
      "stateMutability": "nonpayable",
      "type": "constructor"
    },
    {
      "anonymous": false,
      "inputs": [
        {
          "indexed": true,
          "internalType": "address",
          "name": "owner",
          "type": "address"
        },
        {
          "indexed": true,
          "internalType": "address",
          "name": "approved",
          "type": "address"
        },
        {
          "indexed": true,
          "internalType": "uint256",
          "name": "tokenId",
          "type": "uint256"
        }
      ],
      "name": "Approval",
      "type": "event"
    },
    {
      "anonymous": false,
      "inputs": [
        {
          "indexed": true,
          "internalType": "address",
          "name": "owner",
          "type": "address"
        },
        {
          "indexed": true,
          "internalType": "address",
          "name": "operator",
          "type": "address"
        },
        {
          "indexed": false,
          "internalType": "bool",
          "name": "approved",
          "type": "bool"
        }
      ],
      "name": "ApprovalForAll",
      "type": "event"
    },
    {
      "anonymous": false,
      "inputs": [
        {
          "indexed": true,
          "internalType": "address",
          "name": "previousOwner",
          "type": "address"
        },
        {
          "indexed": true,
          "internalType": "address",
          "name": "newOwner",
          "type": "address"
        }
      ],
      "name": "OwnershipTransferred",
      "type": "event"
    },
    {
      "anonymous": false,
      "inputs": [
        {
          "indexed": true,
          "internalType": "address",
          "name": "from",
          "type": "address"
        },
        {
          "indexed": true,
          "internalType": "address",
          "name": "to",
          "type": "address"
        },
        {
          "indexed": true,
          "internalType": "uint256",
          "name": "tokenId",
          "type": "uint256"
        }
      ],
      "name": "Transfer",
      "type": "event"
    },
    {
      "inputs": [
        {
          "internalType": "address",
          "name": "to",
          "type": "address"
        },
        {
          "internalType": "uint256",
          "name": "tokenId",
          "type": "uint256"
        }
      ],
      "name": "approve",
      "outputs": [],
      "stateMutability": "nonpayable",
      "type": "function"
    },
    {
      "inputs": [
        {
          "internalType": "address",
          "name": "owner",
          "type": "address"
        }
      ],
      "name": "balanceOf",
      "outputs": [
        {
          "internalType": "uint256",
          "name": "",
          "type": "uint256"
        }
      ],
      "stateMutability": "view",
      "type": "function"
    },
    {
      "inputs": [
        {
          "internalType": "uint256",
          "name": "tokenId",
          "type": "uint256"
        }
      ],
      "name": "getApproved",
      "outputs": [
        {
          "internalType": "address",
          "name": "",
          "type": "address"
        }
      ],
      "stateMutability": "view",
      "type": "function"
    },
    {
      "inputs": [
        {
          "internalType": "address",
          "name": "owner",
          "type": "address"
        },
        {
          "internalType": "address",
          "name": "operator",
          "type": "address"
        }
      ],
      "name": "isApprovedForAll",
      "outputs": [
        {
          "internalType": "bool",
          "name": "",
          "type": "bool"
        }
      ],
      "stateMutability": "view",
      "type": "function"
    },
    {
      "inputs": [],
      "name": "name",
      "outputs": [
        {
          "internalType": "string",
          "name": "",
          "type": "string"
        }
      ],
      "stateMutability": "view",
      "type": "function"
    },
    {
      "inputs": [],
      "name": "owner",
      "outputs": [
        {
          "internalType": "address",
          "name": "",
          "type": "address"
        }
      ],
      "stateMutability": "view",
      "type": "function"
    },
    {
      "inputs": [
        {
          "internalType": "uint256",
          "name": "tokenId",
          "type": "uint256"
        }
      ],
      "name": "ownerOf",
      "outputs": [
        {
          "internalType": "address",
          "name": "",
          "type": "address"
        }
      ],
      "stateMutability": "view",
      "type": "function"
    },
    {
      "inputs": [],
      "name": "renounceOwnership",
      "outputs": [],
      "stateMutability": "nonpayable",
      "type": "function"
    },
    {
      "inputs": [],
      "name": "safeMint",
      "outputs": [],
      "stateMutability": "payable",
      "type": "function"
    },
    {
      "inputs": [
        {
          "internalType": "address",
          "name": "from",
          "type": "address"
        },
        {
          "internalType": "address",
          "name": "to",
          "type": "address"
        },
        {
          "internalType": "uint256",
          "name": "tokenId",
          "type": "uint256"
        }
      ],
      "name": "safeTransferFrom",
      "outputs": [],
      "stateMutability": "nonpayable",
      "type": "function"
    },
    {
      "inputs": [
        {
          "internalType": "address",
          "name": "from",
          "type": "address"
        },
        {
          "internalType": "address",
          "name": "to",
          "type": "address"
        },
        {
          "internalType": "uint256",
          "name": "tokenId",
          "type": "uint256"
        },
        {
          "internalType": "bytes",
          "name": "data",
          "type": "bytes"
        }
      ],
      "name": "safeTransferFrom",
      "outputs": [],
      "stateMutability": "nonpayable",
      "type": "function"
    },
    {
      "inputs": [
        {
          "internalType": "address",
          "name": "operator",
          "type": "address"
        },
        {
          "internalType": "bool",
          "name": "approved",
          "type": "bool"
        }
      ],
      "name": "setApprovalForAll",
      "outputs": [],
      "stateMutability": "nonpayable",
      "type": "function"
    },
    {
      "inputs": [
        {
          "internalType": "bytes4",
          "name": "interfaceId",
          "type": "bytes4"
        }
      ],
      "name": "supportsInterface",
      "outputs": [
        {
          "internalType": "bool",
          "name": "",
          "type": "bool"
        }
      ],
      "stateMutability": "view",
      "type": "function"
    },
    {
      "inputs": [],
      "name": "symbol",
      "outputs": [
        {
          "internalType": "string",
          "name": "",
          "type": "string"
        }
      ],
      "stateMutability": "view",
      "type": "function"
    },
    {
      "inputs": [
        {
          "internalType": "uint256",
          "name": "tokenId",
          "type": "uint256"
        }
      ],
      "name": "tokenURI",
      "outputs": [
        {
          "internalType": "string",
          "name": "",
          "type": "string"
        }
      ],
      "stateMutability": "view",
      "type": "function"
    },
    {
      "inputs": [
        {
          "internalType": "address",
          "name": "from",
          "type": "address"
        },
        {
          "internalType": "address",
          "name": "to",
          "type": "address"
        },
        {
          "internalType": "uint256",
          "name": "tokenId",
          "type": "uint256"
        }
      ],
      "name": "transferFrom",
      "outputs": [],
      "stateMutability": "nonpayable",
      "type": "function"
    },
    {
      "inputs": [
        {
          "internalType": "address",
          "name": "newOwner",
          "type": "address"
        }
      ],
      "name": "transferOwnership",
      "outputs": [],
      "stateMutability": "nonpayable",
      "type": "function"
    }
  ],
  "bytecode": "0x60806040523480156200001157600080fd5b506040518060400160405280600781526020017f536f6c696d6178000000000000000000000000000000000000000000000000008152506040518060400160405280600681526020017f44414f4e4654000000000000000000000000000000000000000000000000000081525081600090816200008f919062000412565b508060019081620000a1919062000412565b505050620000c4620000b8620000ca60201b60201c565b620000d260201b60201c565b620004f9565b600033905090565b6000600660009054906101000a900473ffffffffffffffffffffffffffffffffffffffff16905081600660006101000a81548173ffffffffffffffffffffffffffffffffffffffff021916908373ffffffffffffffffffffffffffffffffffffffff1602179055508173ffffffffffffffffffffffffffffffffffffffff168173ffffffffffffffffffffffffffffffffffffffff167f8be0079c531659141344cd1fd0a4f28419497f9722a3daafe3b4186f6b6457e060405160405180910390a35050565b600081519050919050565b7f4e487b7100000000000000000000000000000000000000000000000000000000600052604160045260246000fd5b7f4e487b7100000000000000000000000000000000000000000000000000000000600052602260045260246000fd5b600060028204905060018216806200021a57607f821691505b60208210810362000230576200022f620001d2565b5b50919050565b60008190508160005260206000209050919050565b60006020601f8301049050919050565b600082821b905092915050565b6000600883026200029a7fffffffffffffffffffffffffffffffffffffffffffffffffffffffffffffffff826200025b565b620002a686836200025b565b95508019841693508086168417925050509392505050565b6000819050919050565b6000819050919050565b6000620002f3620002ed620002e784620002be565b620002c8565b620002be565b9050919050565b6000819050919050565b6200030f83620002d2565b620003276200031e82620002fa565b84845462000268565b825550505050565b600090565b6200033e6200032f565b6200034b81848462000304565b505050565b5b8181101562000373576200036760008262000334565b60018101905062000351565b5050565b601f821115620003c2576200038c8162000236565b62000397846200024b565b81016020851015620003a7578190505b620003bf620003b6856200024b565b83018262000350565b50505b505050565b600082821c905092915050565b6000620003e760001984600802620003c7565b1980831691505092915050565b6000620004028383620003d4565b9150826002028217905092915050565b6200041d8262000198565b67ffffffffffffffff811115620004395762000438620001a3565b5b62000445825462000201565b6200045282828562000377565b600060209050601f8311600181146200048a576000841562000475578287015190505b620004818582620003f4565b865550620004f1565b601f1984166200049a8662000236565b60005b82811015620004c4578489015182556001820191506020850194506020810190506200049d565b86831015620004e45784890151620004e0601f891682620003d4565b8355505b6001600288020188555050505b505050505050565b612b4880620005096000396000f3fe6080604052600436106100fe5760003560e01c806370a0823111610095578063a22cb46511610064578063a22cb46514610314578063b88d4fde1461033d578063c87b56dd14610366578063e985e9c5146103a3578063f2fde38b146103e0576100fe565b806370a082311461026a578063715018a6146102a75780638da5cb5b146102be57806395d89b41146102e9576100fe565b806323b872dd116100d157806323b872dd146101d157806342842e0e146101fa5780636352211e146102235780636871ee4014610260576100fe565b806301ffc9a71461010357806306fdde0314610140578063081812fc1461016b578063095ea7b3146101a8575b600080fd5b34801561010f57600080fd5b5061012a60048036038101906101259190611c33565b610409565b6040516101379190611c7b565b60405180910390f35b34801561014c57600080fd5b506101556104eb565b6040516101629190611d26565b60405180910390f35b34801561017757600080fd5b50610192600480360381019061018d9190611d7e565b61057d565b60405161019f9190611dec565b60405180910390f35b3480156101b457600080fd5b506101cf60048036038101906101ca9190611e33565b6105c3565b005b3480156101dd57600080fd5b506101f860048036038101906101f39190611e73565b6106da565b005b34801561020657600080fd5b50610221600480360381019061021c9190611e73565b61073a565b005b34801561022f57600080fd5b5061024a60048036038101906102459190611d7e565b61075a565b6040516102579190611dec565b60405180910390f35b6102686107e0565b005b34801561027657600080fd5b50610291600480360381019061028c9190611ec6565b61090a565b60405161029e9190611f02565b60405180910390f35b3480156102b357600080fd5b506102bc6109c1565b005b3480156102ca57600080fd5b506102d36109d5565b6040516102e09190611dec565b60405180910390f35b3480156102f557600080fd5b506102fe6109ff565b60405161030b9190611d26565b60405180910390f35b34801561032057600080fd5b5061033b60048036038101906103369190611f49565b610a91565b005b34801561034957600080fd5b50610364600480360381019061035f91906120be565b610aa7565b005b34801561037257600080fd5b5061038d60048036038101906103889190611d7e565b610b09565b60405161039a9190611d26565b60405180910390f35b3480156103af57600080fd5b506103ca60048036038101906103c59190612141565b610b71565b6040516103d79190611c7b565b60405180910390f35b3480156103ec57600080fd5b5061040760048036038101906104029190611ec6565b610c05565b005b60007f80ac58cd000000000000000000000000000000000000000000000000000000007bffffffffffffffffffffffffffffffffffffffffffffffffffffffff1916827bffffffffffffffffffffffffffffffffffffffffffffffffffffffff191614806104d457507f5b5e139f000000000000000000000000000000000000000000000000000000007bffffffffffffffffffffffffffffffffffffffffffffffffffffffff1916827bffffffffffffffffffffffffffffffffffffffffffffffffffffffff1916145b806104e457506104e382610c88565b5b9050919050565b6060600080546104fa906121b0565b80601f0160208091040260200160405190810160405280929190818152602001828054610526906121b0565b80156105735780601f1061054857610100808354040283529160200191610573565b820191906000526020600020905b81548152906001019060200180831161055657829003601f168201915b5050505050905090565b600061058882610cf2565b6004600083815260200190815260200160002060009054906101000a900473ffffffffffffffffffffffffffffffffffffffff169050919050565b60006105ce8261075a565b90508073ffffffffffffffffffffffffffffffffffffffff168373ffffffffffffffffffffffffffffffffffffffff160361063e576040517f08c379a000000000000000000000000000000000000000000000000000000000815260040161063590612253565b60405180910390fd5b8073ffffffffffffffffffffffffffffffffffffffff1661065d610d3d565b73ffffffffffffffffffffffffffffffffffffffff16148061068c575061068b81610686610d3d565b610b71565b5b6106cb576040517f08c379a00000000000000000000000000000000000000000000000000000000081526004016106c2906122e5565b60405180910390fd5b6106d58383610d45565b505050565b6106eb6106e5610d3d565b82610dfe565b61072a576040517f08c379a000000000000000000000000000000000000000000000000000000000815260040161072190612377565b60405180910390fd5b610735838383610e93565b505050565b61075583838360405180602001604052806000815250610aa7565b505050565b6000806107668361118c565b9050600073ffffffffffffffffffffffffffffffffffffffff168173ffffffffffffffffffffffffffffffffffffffff16036107d7576040517f08c379a00000000000000000000000000000000000000000000000000000000081526004016107ce906123e3565b60405180910390fd5b80915050919050565b670de0b6b3a7640000341461082a576040517f08c379a00000000000000000000000000000000000000000000000000000000081526004016108219061244f565b60405180910390fd5b60003073ffffffffffffffffffffffffffffffffffffffff16638da5cb5b6040518163ffffffff1660e01b8152600401602060405180830381865afa158015610877573d6000803e3d6000fd5b505050506040513d601f19601f8201168201806040525081019061089b9190612484565b90508073ffffffffffffffffffffffffffffffffffffffff166108fc349081150290604051600060405180830381858888f193505050501580156108e3573d6000803e3d6000fd5b5060006108f060076111c9565b90506108fc60076111d7565b61090633826111ed565b5050565b60008073ffffffffffffffffffffffffffffffffffffffff168273ffffffffffffffffffffffffffffffffffffffff160361097a576040517f08c379a000000000000000000000000000000000000000000000000000000000815260040161097190612523565b60405180910390fd5b600360008373ffffffffffffffffffffffffffffffffffffffff1673ffffffffffffffffffffffffffffffffffffffff168152602001908152602001600020549050919050565b6109c961120b565b6109d36000611289565b565b6000600660009054906101000a900473ffffffffffffffffffffffffffffffffffffffff16905090565b606060018054610a0e906121b0565b80601f0160208091040260200160405190810160405280929190818152602001828054610a3a906121b0565b8015610a875780601f10610a5c57610100808354040283529160200191610a87565b820191906000526020600020905b815481529060010190602001808311610a6a57829003601f168201915b5050505050905090565b610aa3610a9c610d3d565b838361134f565b5050565b610ab8610ab2610d3d565b83610dfe565b610af7576040517f08c379a0000000000000000000000000000000000000000000000000000000008152600401610aee90612377565b60405180910390fd5b610b03848484846114bb565b50505050565b6060610b1482610cf2565b6000610b1e611517565b90506000815111610b3e5760405180602001604052806000815250610b69565b80610b4884611537565b604051602001610b5992919061257f565b6040516020818303038152906040525b915050919050565b6000600560008473ffffffffffffffffffffffffffffffffffffffff1673ffffffffffffffffffffffffffffffffffffffff16815260200190815260200160002060008373ffffffffffffffffffffffffffffffffffffffff1673ffffffffffffffffffffffffffffffffffffffff16815260200190815260200160002060009054906101000a900460ff16905092915050565b610c0d61120b565b600073ffffffffffffffffffffffffffffffffffffffff168173ffffffffffffffffffffffffffffffffffffffff1603610c7c576040517f08c379a0000000000000000000000000000000000000000000000000000000008152600401610c7390612615565b60405180910390fd5b610c8581611289565b50565b60007f01ffc9a7000000000000000000000000000000000000000000000000000000007bffffffffffffffffffffffffffffffffffffffffffffffffffffffff1916827bffffffffffffffffffffffffffffffffffffffffffffffffffffffff1916149050919050565b610cfb81611605565b610d3a576040517f08c379a0000000000000000000000000000000000000000000000000000000008152600401610d31906123e3565b60405180910390fd5b50565b600033905090565b816004600083815260200190815260200160002060006101000a81548173ffffffffffffffffffffffffffffffffffffffff021916908373ffffffffffffffffffffffffffffffffffffffff160217905550808273ffffffffffffffffffffffffffffffffffffffff16610db88361075a565b73ffffffffffffffffffffffffffffffffffffffff167f8c5be1e5ebec7d5bd14f71427d1e84f3dd0314c0f7b2291e5b200ac8c7c3b92560405160405180910390a45050565b600080610e0a8361075a565b90508073ffffffffffffffffffffffffffffffffffffffff168473ffffffffffffffffffffffffffffffffffffffff161480610e4c5750610e4b8185610b71565b5b80610e8a57508373ffffffffffffffffffffffffffffffffffffffff16610e728461057d565b73ffffffffffffffffffffffffffffffffffffffff16145b91505092915050565b8273ffffffffffffffffffffffffffffffffffffffff16610eb38261075a565b73ffffffffffffffffffffffffffffffffffffffff1614610f09576040517f08c379a0000000000000000000000000000000000000000000000000000000008152600401610f00906126a7565b60405180910390fd5b600073ffffffffffffffffffffffffffffffffffffffff168273ffffffffffffffffffffffffffffffffffffffff1603610f78576040517f08c379a0000000000000000000000000000000000000000000000000000000008152600401610f6f90612739565b60405180910390fd5b610f858383836001611646565b8273ffffffffffffffffffffffffffffffffffffffff16610fa58261075a565b73ffffffffffffffffffffffffffffffffffffffff1614610ffb576040517f08c379a0000000000000000000000000000000000000000000000000000000008152600401610ff2906126a7565b60405180910390fd5b6004600082815260200190815260200160002060006101000a81549073ffffffffffffffffffffffffffffffffffffffff02191690556001600360008573ffffffffffffffffffffffffffffffffffffffff1673ffffffffffffffffffffffffffffffffffffffff168152602001908152602001600020600082825403925050819055506001600360008473ffffffffffffffffffffffffffffffffffffffff1673ffffffffffffffffffffffffffffffffffffffff16815260200190815260200160002060008282540192505081905550816002600083815260200190815260200160002060006101000a81548173ffffffffffffffffffffffffffffffffffffffff021916908373ffffffffffffffffffffffffffffffffffffffff160217905550808273ffffffffffffffffffffffffffffffffffffffff168473ffffffffffffffffffffffffffffffffffffffff167fddf252ad1be2c89b69c2b068fc378daa952ba7f163c4a11628f55a4df523b3ef60405160405180910390a4611187838383600161164c565b505050565b60006002600083815260200190815260200160002060009054906101000a900473ffffffffffffffffffffffffffffffffffffffff169050919050565b600081600001549050919050565b6001816000016000828254019250508190555050565b611207828260405180602001604052806000815250611652565b5050565b611213610d3d565b73ffffffffffffffffffffffffffffffffffffffff166112316109d5565b73ffffffffffffffffffffffffffffffffffffffff1614611287576040517f08c379a000000000000000000000000000000000000000000000000000000000815260040161127e906127a5565b60405180910390fd5b565b6000600660009054906101000a900473ffffffffffffffffffffffffffffffffffffffff16905081600660006101000a81548173ffffffffffffffffffffffffffffffffffffffff021916908373ffffffffffffffffffffffffffffffffffffffff1602179055508173ffffffffffffffffffffffffffffffffffffffff168173ffffffffffffffffffffffffffffffffffffffff167f8be0079c531659141344cd1fd0a4f28419497f9722a3daafe3b4186f6b6457e060405160405180910390a35050565b8173ffffffffffffffffffffffffffffffffffffffff168373ffffffffffffffffffffffffffffffffffffffff16036113bd576040517f08c379a00000000000000000000000000000000000000000000000000000000081526004016113b490612811565b60405180910390fd5b80600560008573ffffffffffffffffffffffffffffffffffffffff1673ffffffffffffffffffffffffffffffffffffffff16815260200190815260200160002060008473ffffffffffffffffffffffffffffffffffffffff1673ffffffffffffffffffffffffffffffffffffffff16815260200190815260200160002060006101000a81548160ff0219169083151502179055508173ffffffffffffffffffffffffffffffffffffffff168373ffffffffffffffffffffffffffffffffffffffff167f17307eab39ab6107e8899845ad3d59bd9653f200f220920489ca2b5937696c31836040516114ae9190611c7b565b60405180910390a3505050565b6114c6848484610e93565b6114d2848484846116ad565b611511576040517f08c379a0000000000000000000000000000000000000000000000000000000008152600401611508906128a3565b60405180910390fd5b50505050565b60606040518060a0016040528060658152602001612aae60659139905090565b60606000600161154684611834565b01905060008167ffffffffffffffff81111561156557611564611f93565b5b6040519080825280601f01601f1916602001820160405280156115975781602001600182028036833780820191505090505b509050600082602001820190505b6001156115fa578080600190039150507f3031323334353637383961626364656600000000000000000000000000000000600a86061a8153600a85816115ee576115ed6128c3565b5b049450600085036115a5575b819350505050919050565b60008073ffffffffffffffffffffffffffffffffffffffff166116278361118c565b73ffffffffffffffffffffffffffffffffffffffff1614159050919050565b50505050565b50505050565b61165c8383611987565b61166960008484846116ad565b6116a8576040517f08c379a000000000000000000000000000000000000000000000000000000000815260040161169f906128a3565b60405180910390fd5b505050565b60006116ce8473ffffffffffffffffffffffffffffffffffffffff16611ba4565b15611827578373ffffffffffffffffffffffffffffffffffffffff1663150b7a026116f7610d3d565b8786866040518563ffffffff1660e01b81526004016117199493929190612947565b6020604051808303816000875af192505050801561175557506040513d601f19601f8201168201806040525081019061175291906129a8565b60015b6117d7573d8060008114611785576040519150601f19603f3d011682016040523d82523d6000602084013e61178a565b606091505b5060008151036117cf576040517f08c379a00000000000000000000000000000000000000000000000000000000081526004016117c6906128a3565b60405180910390fd5b805181602001fd5b63150b7a0260e01b7bffffffffffffffffffffffffffffffffffffffffffffffffffffffff1916817bffffffffffffffffffffffffffffffffffffffffffffffffffffffff19161491505061182c565b600190505b949350505050565b600080600090507a184f03e93ff9f4daa797ed6e38ed64bf6a1f0100000000000000008310611892577a184f03e93ff9f4daa797ed6e38ed64bf6a1f0100000000000000008381611888576118876128c3565b5b0492506040810190505b6d04ee2d6d415b85acef810000000083106118cf576d04ee2d6d415b85acef810000000083816118c5576118c46128c3565b5b0492506020810190505b662386f26fc1000083106118fe57662386f26fc1000083816118f4576118f36128c3565b5b0492506010810190505b6305f5e1008310611927576305f5e100838161191d5761191c6128c3565b5b0492506008810190505b612710831061194c576127108381611942576119416128c3565b5b0492506004810190505b6064831061196f5760648381611965576119646128c3565b5b0492506002810190505b600a831061197e576001810190505b80915050919050565b600073ffffffffffffffffffffffffffffffffffffffff168273ffffffffffffffffffffffffffffffffffffffff16036119f6576040517f08c379a00000000000000000000000000000000000000000000000000000000081526004016119ed90612a21565b60405180910390fd5b6119ff81611605565b15611a3f576040517f08c379a0000000000000000000000000000000000000000000000000000000008152600401611a3690612a8d565b60405180910390fd5b611a4d600083836001611646565b611a5681611605565b15611a96576040517f08c379a0000000000000000000000000000000000000000000000000000000008152600401611a8d90612a8d565b60405180910390fd5b6001600360008473ffffffffffffffffffffffffffffffffffffffff1673ffffffffffffffffffffffffffffffffffffffff16815260200190815260200160002060008282540192505081905550816002600083815260200190815260200160002060006101000a81548173ffffffffffffffffffffffffffffffffffffffff021916908373ffffffffffffffffffffffffffffffffffffffff160217905550808273ffffffffffffffffffffffffffffffffffffffff16600073ffffffffffffffffffffffffffffffffffffffff167fddf252ad1be2c89b69c2b068fc378daa952ba7f163c4a11628f55a4df523b3ef60405160405180910390a4611ba060008383600161164c565b5050565b6000808273ffffffffffffffffffffffffffffffffffffffff163b119050919050565b6000604051905090565b600080fd5b600080fd5b60007fffffffff0000000000000000000000000000000000000000000000000000000082169050919050565b611c1081611bdb565b8114611c1b57600080fd5b50565b600081359050611c2d81611c07565b92915050565b600060208284031215611c4957611c48611bd1565b5b6000611c5784828501611c1e565b91505092915050565b60008115159050919050565b611c7581611c60565b82525050565b6000602082019050611c906000830184611c6c565b92915050565b600081519050919050565b600082825260208201905092915050565b60005b83811015611cd0578082015181840152602081019050611cb5565b60008484015250505050565b6000601f19601f8301169050919050565b6000611cf882611c96565b611d028185611ca1565b9350611d12818560208601611cb2565b611d1b81611cdc565b840191505092915050565b60006020820190508181036000830152611d408184611ced565b905092915050565b6000819050919050565b611d5b81611d48565b8114611d6657600080fd5b50565b600081359050611d7881611d52565b92915050565b600060208284031215611d9457611d93611bd1565b5b6000611da284828501611d69565b91505092915050565b600073ffffffffffffffffffffffffffffffffffffffff82169050919050565b6000611dd682611dab565b9050919050565b611de681611dcb565b82525050565b6000602082019050611e016000830184611ddd565b92915050565b611e1081611dcb565b8114611e1b57600080fd5b50565b600081359050611e2d81611e07565b92915050565b60008060408385031215611e4a57611e49611bd1565b5b6000611e5885828601611e1e565b9250506020611e6985828601611d69565b9150509250929050565b600080600060608486031215611e8c57611e8b611bd1565b5b6000611e9a86828701611e1e565b9350506020611eab86828701611e1e565b9250506040611ebc86828701611d69565b9150509250925092565b600060208284031215611edc57611edb611bd1565b5b6000611eea84828501611e1e565b91505092915050565b611efc81611d48565b82525050565b6000602082019050611f176000830184611ef3565b92915050565b611f2681611c60565b8114611f3157600080fd5b50565b600081359050611f4381611f1d565b92915050565b60008060408385031215611f6057611f5f611bd1565b5b6000611f6e85828601611e1e565b9250506020611f7f85828601611f34565b9150509250929050565b600080fd5b600080fd5b7f4e487b7100000000000000000000000000000000000000000000000000000000600052604160045260246000fd5b611fcb82611cdc565b810181811067ffffffffffffffff82111715611fea57611fe9611f93565b5b80604052505050565b6000611ffd611bc7565b90506120098282611fc2565b919050565b600067ffffffffffffffff82111561202957612028611f93565b5b61203282611cdc565b9050602081019050919050565b82818337600083830152505050565b600061206161205c8461200e565b611ff3565b90508281526020810184848401111561207d5761207c611f8e565b5b61208884828561203f565b509392505050565b600082601f8301126120a5576120a4611f89565b5b81356120b584826020860161204e565b91505092915050565b600080600080608085870312156120d8576120d7611bd1565b5b60006120e687828801611e1e565b94505060206120f787828801611e1e565b935050604061210887828801611d69565b925050606085013567ffffffffffffffff81111561212957612128611bd6565b5b61213587828801612090565b91505092959194509250565b6000806040838503121561215857612157611bd1565b5b600061216685828601611e1e565b925050602061217785828601611e1e565b9150509250929050565b7f4e487b7100000000000000000000000000000000000000000000000000000000600052602260045260246000fd5b600060028204905060018216806121c857607f821691505b6020821081036121db576121da612181565b5b50919050565b7f4552433732313a20617070726f76616c20746f2063757272656e74206f776e6560008201527f7200000000000000000000000000000000000000000000000000000000000000602082015250565b600061223d602183611ca1565b9150612248826121e1565b604082019050919050565b6000602082019050818103600083015261226c81612230565b9050919050565b7f4552433732313a20617070726f76652063616c6c6572206973206e6f7420746f60008201527f6b656e206f776e6572206f7220617070726f76656420666f7220616c6c000000602082015250565b60006122cf603d83611ca1565b91506122da82612273565b604082019050919050565b600060208201905081810360008301526122fe816122c2565b9050919050565b7f4552433732313a2063616c6c6572206973206e6f7420746f6b656e206f776e6560008201527f72206f7220617070726f76656400000000000000000000000000000000000000602082015250565b6000612361602d83611ca1565b915061236c82612305565b604082019050919050565b6000602082019050818103600083015261239081612354565b9050919050565b7f4552433732313a20696e76616c696420746f6b656e2049440000000000000000600082015250565b60006123cd601883611ca1565b91506123d882612397565b602082019050919050565b600060208201905081810360008301526123fc816123c0565b9050919050565b7f526571756972657320352065746865727320746f206d696e7400000000000000600082015250565b6000612439601983611ca1565b915061244482612403565b602082019050919050565b600060208201905081810360008301526124688161242c565b9050919050565b60008151905061247e81611e07565b92915050565b60006020828403121561249a57612499611bd1565b5b60006124a88482850161246f565b91505092915050565b7f4552433732313a2061646472657373207a65726f206973206e6f74206120766160008201527f6c6964206f776e65720000000000000000000000000000000000000000000000602082015250565b600061250d602983611ca1565b9150612518826124b1565b604082019050919050565b6000602082019050818103600083015261253c81612500565b9050919050565b600081905092915050565b600061255982611c96565b6125638185612543565b9350612573818560208601611cb2565b80840191505092915050565b600061258b828561254e565b9150612597828461254e565b91508190509392505050565b7f4f776e61626c653a206e6577206f776e657220697320746865207a65726f206160008201527f6464726573730000000000000000000000000000000000000000000000000000602082015250565b60006125ff602683611ca1565b915061260a826125a3565b604082019050919050565b6000602082019050818103600083015261262e816125f2565b9050919050565b7f4552433732313a207472616e736665722066726f6d20696e636f72726563742060008201527f6f776e6572000000000000000000000000000000000000000000000000000000602082015250565b6000612691602583611ca1565b915061269c82612635565b604082019050919050565b600060208201905081810360008301526126c081612684565b9050919050565b7f4552433732313a207472616e7366657220746f20746865207a65726f2061646460008201527f7265737300000000000000000000000000000000000000000000000000000000602082015250565b6000612723602483611ca1565b915061272e826126c7565b604082019050919050565b6000602082019050818103600083015261275281612716565b9050919050565b7f4f776e61626c653a2063616c6c6572206973206e6f7420746865206f776e6572600082015250565b600061278f602083611ca1565b915061279a82612759565b602082019050919050565b600060208201905081810360008301526127be81612782565b9050919050565b7f4552433732313a20617070726f766520746f2063616c6c657200000000000000600082015250565b60006127fb601983611ca1565b9150612806826127c5565b602082019050919050565b6000602082019050818103600083015261282a816127ee565b9050919050565b7f4552433732313a207472616e7366657220746f206e6f6e20455243373231526560008201527f63656976657220696d706c656d656e7465720000000000000000000000000000602082015250565b600061288d603283611ca1565b915061289882612831565b604082019050919050565b600060208201905081810360008301526128bc81612880565b9050919050565b7f4e487b7100000000000000000000000000000000000000000000000000000000600052601260045260246000fd5b600081519050919050565b600082825260208201905092915050565b6000612919826128f2565b61292381856128fd565b9350612933818560208601611cb2565b61293c81611cdc565b840191505092915050565b600060808201905061295c6000830187611ddd565b6129696020830186611ddd565b6129766040830185611ef3565b8181036060830152612988818461290e565b905095945050505050565b6000815190506129a281611c07565b92915050565b6000602082840312156129be576129bd611bd1565b5b60006129cc84828501612993565b91505092915050565b7f4552433732313a206d696e7420746f20746865207a65726f2061646472657373600082015250565b6000612a0b602083611ca1565b9150612a16826129d5565b602082019050919050565b60006020820190508181036000830152612a3a816129fe565b9050919050565b7f4552433732313a20746f6b656e20616c7265616479206d696e74656400000000600082015250565b6000612a77601c83611ca1565b9150612a8282612a41565b602082019050919050565b60006020820190508181036000830152612aa681612a6a565b905091905056fe68747470733a2f2f62616679626569616870626f666c366f726879793666616761766d346578353470796366376f6a697678676a6663627262636a67706b33696863712e697066732e647765622e6c696e6b2f534f4c494d41583a44414f4e46542e6a7067a2646970667358221220ae1386dd58a37f42344c49a6643cb2217f12568c5e6e96311ec391a7f2113d0d64736f6c63430008110033",
  "linkReferences": {},
  "deployedLinkReferences": {}
}